:100000000C9434000C946A000C946A000C946A00FE
:100010000C946A000C946A000C946A000C946A00B8
:100020000C946A000C946A000C946A000C946A00A8
:100030000C946A000C946A000C946A000C946A0098
:100040000C946A000C946A000C946A000C946A0088
:100050000C946A000C946A000C946A000C946A0078
:100060000C946A000C946A0011241FBECFEFD8E0F4
:10007000DEBFCDBF0E9440000C943E00F894FFCF3D
:10008000CF93DF93CDB7DEB729970FB6F894DEBFD5
:100090000FBECDBF85E089838A8383E08B838C8309
:1000A0008D818F838E8188876A8189810E94640017
:1000B0008D836C818B810E9464008E8368858F8123
:0800C0000E9467008987E6CF6A
:0C00C800860F99270895861B992708953C
:0400D4000C94000088
:00000001FF
